:03000000022830A3
:10000B000225EFE4FFFE120535600C0FEF70010EB9
:10001B0009E970F20A80EF22022946EC4D6011E8E3
:10002B00497017ED33EC3304600DE4FCFFFEFD2249
:10003B00E933E8330470F802027612024158046087
:10004B0009E4CC2481500628500902028028400381
:10005B0002027DC0E0EB4A7044B98006D0E0FB029F
:10006B00026CEF4E701CBD8008EBFFEAFEE9FD80D1
:10007B00EBE98DF0A4FEE5F002010FE9CDF9EAFE04
:10008B00EBFFEF89F0A4FCE5F0CE89F0A42EFFE4A2
:10009B0035F0CD89F0A42DFEE435F08067EF4E707E
:1000AB0005BD80D780C3EF8BF0A4ACF0EE8BF0A432
:1000BB002CFCE435F0F8EF8AF0A42CE5F038FCE4E6
:1000CB0033CB8DF0A42CFCE5F03BF8EE8AF0A42C9E
:1000DB00FCE5F038F8E433CF89F0A42CFCE5F038DC
:1000EB00CF3400CE89F0A42FFFE5F03EFEE433C9F8
:1000FB008DF0A42EFEE5F039CD8AF0A42FFFE5F0AC
:10010B003EFEE43DFD33D0E0FB50070BBB000F027E
:10011B000280EC2CFCEF33FFEE33FEED33FD0202DD
:10012B0058020280EC5D046005E85904700302027A
:10013B0076120241580460F6EC4860F2EC7004FD54
:10014B00FEFF22C860DB2481C85009C398600250AF
:10015B000602027D9850CAF582E9294B4A7005AB1D
:10016B008202026C75F0007C1A7880C3EF9BEE9ACA
:10017B00ED99400DC3EF9BFFEE9AFEED99FDE84222
:10018B00F0DC23ACF0D0E0FFD0E0FED0E0FDAB82A2
:10019B0020E7101BEB60BAEC2CFCEF33FFEE33FEC9
:1001AB00ED33FD020258E803F830E705C0F075F0B7
:1001BB0000EF2FFFEE33FEED33FD40B830E7C2808A
:1001CB00AA75F020800E75F010800575F0087D0083
:1001DB007E007F003392D530D5031207A2EC33405B
:1001EB0010EF33FFEE33FEED33FDEC33FCD5F0EDCA
:1001FB0022E5F0247EA2D513CC92E7CDCEFF22EDE3
:10020B00D2E7CD33EC3392D524814006E4FFFEFDDB
:10021B00FC22FCE4CFCECDCC24E0501174FF80ED5A
:10022B00C3CC13CCCD13CDCE13CECF13CF0470F0E4
:10023B0030D5DE0207A2E9D2E7C933E833F892D50D
:10024B00EDD2E7CD33EC33FC5002B2D522EC30E7E4
:10025B00100FBF000C0EBE00080DBD00040BEB60B1
:10026B0014A2D5EB13FCED92E7FD2274FFFCFDFE0F
:10027B00FF22E480F8A2D574FF13FC7D80E480EFAD
:10028B00F920E73624F950037907E4F42402FBE55F
:10029B0082158270021583DBF6E024FB501BE960AC
:1002AB0014E4F0E582158270021583E004F0B40AC1
:1002BB0008E4F0D9EE7401F00A22C2D522ED33EC3A
:1002CB003392D5FA602AB4FF33EDC2E77BFF6006A9
:1002DB007A0279EDE4227A0279F620D5047A027952
:1002EB00F1224E614E002B494E46002D494E4600E1
:1002FB00E47A08F0A3DAFC7B00740722C083C08287
:10030B00ECC0E0EDC0E0EEC0E0EFC0E0EA75F0104D
:10031B00A4CAABF075F04DA42BFBE435F0FCEA243A
:10032B0010FAEB34C5FBEC34D9FCEDC2E7FF75F0EA
:10033B0056A4F42411C5F0F434C58FF0A42AE5F0CB
:10034B003BE43CF020E7141204F5D0E0FFD0E0FED4
:10035B00D0E0FDD0E0FC12012F8014F4041204F560
:10036B00D0E0FFD0E0FED0E0FDD0E0FC120026D0C4
:10037B0082D083E0FAEDD2E7CD33EC332482FBE479
:10038B00C3CF33CFCE33CECD33CD33DBF37B07753A
:10039B00F00A846004F0A31B0AE5F0F0A38FF0745D
:1003AB000AA4FFACF08EF0740AA42CFEACF0500142
:1003BB000C8DF0740AA42CFDE435F0F0A3DBDE7495
:1003CB000722020276E86480F8E933E8336011040F
:1003DB0060F0ED33EC337009E8FCE9FDEAFEEBFF6E
:1003EB00220460DED3EB9FEA9EE99DE8C2E78CF026
:1003FB00C2F795F0400CE8CCF8E9CDF9EACEFAEB70
:10040B00CFFB12024185D0F05804700320D5B3E81E
:10041B000470075002B2D502028092D5EC0460F74B
:10042B00E4CCC0E0C398F8603B94186008400DD052
:10043B00E0FB020258E4FBFAC9FC8028E830E40632
:10044B00E4C9FBE4CAFCE830E305E4C9CACBFCE829
:10045B0054076010F8C3E913F9EA13FAEB13FBEC3A
:10046B0013FCD8F130F52FC3E49CFCEF9BFFEE9A05
:10047B00FEED99FDD0E0FBEF4E4D4C701222DB03ED
:10048B0002027DEC2CFCEF33FFEE33FEED33FDED82
:10049B0030E7EB020258EF2BFFEE3AFEED39FDD0C1
:1004AB00E0FB50130BBB0003020280ED13FDEE13B8
:1004BB00FEEF13FFEC13FC0202583F8000004120BB
:1004CB00000042C80000447A0000461C400047C3AD
:1004DB005000497424004B1896804CBEBC205A0E19
:1004EB001BCA6753C21C749DC5AEFB6006540760E4
:1004FB001C2323120523EB5438600912050F120538
:10050B001E120026ECF8EDF9EEFAEFCB22EB1205FA
:10051B001E80F1543803241C9004C5FE93FC0EEE90
:10052B0093FD0EEE930ECE93FF22BB010689828ABA
:10053B0083E0225002E722BBFE02E32289828A83F8
:10054B00E49322BB010CE58229F582E5833AF5831E
:10055B00E0225006E92582F8E622BBFE06E9258259
:10056B00F8E222E58229F582E5833AF583E49322CA
:10057B00BB010689828A83F0225002F722BBFE015F
:10058B00F322EF8DF0A4A8F0CF8CF0A428CE8DF041
:10059B00A42EFE22BC000BBE0029EF8DF084FFAD14
:1005AB00F022E4CCF875F008EF2FFFEE33FEEC33BE
:1005BB00FCEE9DEC984005FCEE9DFE0FD5F0E9E4BA
:1005CB00CEFD22EDF8F5F0EE8420D21CFEADF075D9
:1005DB00F008EF2FFFED33FD4007985006D5F0F2F2
:1005EB0022C398FD0FD5F0EA22C5F0F8A3E028F05E
:1005FB00C5F0F8E582158270021583E038F022A36E
:10060B00F8E0C5F025F0F0E582158270021583E065
:10061B00C838F0E822BB0110E58229F582E5833A60
:10062B00F583E0F5F0A3E0225009E92582F886F086
:10063B0008E622BBFE0AE92582F8E2F5F008E22281
:10064B00E5832AF583E993F5F0A3E99322F8BB013F
:10065B0011E58229F582E5833AF583E8F0E5F0A30D
:10066B00F0225009E92582C8F608A6F022BBFE0944
:10067B00E92582C8F2E5F008F222E88FF0A4CC8BD2
:10068B00F0A42CFCE98EF0A42CFC8AF0EDA42CFC3D
:10069B00EA8EF0A4CDA8F08BF0A42DCC3825F0FD7C
:1006AB00E98FF0A42CCD35F0FCEB8EF0A4FEA9F075
:1006BB00EB8FF0A4CFC5F02ECD39FEE43CFCEAA4C1
:1006CB002DCE35F0FDE43CFC2275F008758200EF71
:1006DB002FFFEE33FECD33CDCC33CCC58233C58269
:1006EB009BED9AEC99E58298400CF582EE9BFEED22
:1006FB009AFDEC99FC0FD5F0D6E4CEFBE4CDFAE4F1
:10070B00CCF9A88222B800C1B90059BA002DEC8BE4
:10071B00F084CFCECDFCE5F0CBF97818EF2FFFEEC0
:10072B0033FEED33FDEC33FCEB33FB10D703994079
:10073B0004EB99FB0FD8E5E4F9FA227818EF2FFFB9
:10074B00EE33FEED33FDEC33FCC933C910D7059BFB
:10075B00E99A4007EC9BFCE99AF90FD8E0E4C9FA57
:10076B00E4CCFB2275F010EF2FFFEE33FEED33FDE3
:10077B00CC33CCC833C810D7079BEC9AE899400A06
:10078B00ED9BFDEC9AFCE899F80FD5F0DAE4CDFB84
:10079B00E4CCFAE4C8F922C3E49FFFE49EFEE49D97
:1007AB00FDE49CFC22EB9FF5F0EA9E42F0E99D42B2
:1007BB00F0EC6480C864809845F022EB9FF5F0EA7A
:1007CB009E42F0E99D42F0E89C45F022E8600FEC78
:1007DB00C313FCED13FDEE13FEEF13FFD8F122EC68
:1007EB00F0A3EDF0A3EEF0A3EFF022A8828583F047
:1007FB00D083D08212080D12080D12080D12080DAD
:10080B00E473E493A3C583C5F0C583C8C582C8F060
:10081B00A3C583C5F0C583C8C582C822F8E0FBA376
:10082B00A3E0F925F0F0E582158270021583E0FA5A
:10083B0038F022EBF0A3EAF0A3E9F022D083D082C8
:10084B00F8E4937012740193700DA3A393F87401E1
:10085B0093F5828883E4737402936860EFA3A3A378
:10086B0080DFEC8EF0A4CCC5F0CCCDF8EFA4CEC5D8
:10087B00F02DFDE43CFCE8A42EC8C5F03DFDE43CA6
:10088B00FCEFA4FFE5F028FEE43DFDE43CFC22E593
:10089B00082412F582E43400F583E0050822900069
:1008AB000F300703900012E475F0011208270205C0
:1008BB00352000E97F2ED2008018EF540F2490D4FE
:1008CB003440D4FF30040BEF24BFB41A0050032480
:1008DB0061FFE50960021509050CE50C7002050BBB
:1008EB0030070E90000FE475F001120827EF020598
:1008FB007B022B9E7403D2078003E4C207F508909A
:10090B00000F12083EE4F509F50BF50CE50960073D
:10091B007F201208DD80F5750AFFC201C200C202FA
:10092B00C203C205C206C2081208A9FF700D300728
:10093B00057F001208EEAF0CAE0B22B4255FC2D5BB
:10094B00C2041208A9FF24D0B40A00501A75F00A89
:10095B00780930D50508B6FF0106C6A426F620D5C2
:10096B00047002D20380D924CFB41A00EF5004C212
:10097B00E5D204020BE0D20180C6D20080C0D202C5
:10098B0080BCD2D580BAD20580B47F201208DD207E
:10099B0002077401B5090040F112089AFF1208DD35
:1009AB00020917D208D206809512089AFB12089AF0
:1009BB00FA12089AF94A4B700679DE7A0C7BFF2003
:1009CB00022EE509602A7E008E8275830012054E89
:1009DB0060060EEE650A70F0C2D5EBC0E0EAC0E02F
:1009EB00E9C0E0EE120C41D0E0F9D0E0FAD0E0FB28
:1009FB00120535FF60AAEBC0E0EAC0E0E9C0E012E7
:100A0B0008DDD0E02401F9D0E03400FAD0E0FBE5BA
:100A1B000A0460DCD50AD98087D20280A2120C238B
:100A2B0060F7E50A70010412028BA90A600DE50A52
:100A3B00600914F50A120CCBEF60F3EA30E702F40D
:100A4B0004C3995079EAF4250A0430E701E404F56C
:100A5B000A800D120C2360C1EA050A250A12028BCB
:100A6B00EA90003EF030E701E4250A04D50A0420A1
:100A7B00050114120C41E4C0E0120CCB90003EE0D7
:100A8B00601320E70714F01208C5802204F0D0E0B1
:100A9B0014C0E07F001208C5E50A60071208BC15F8
:100AAB000A800B3005031208BCD0E0020917D0E016
:100ABB000480C4120C23609EE50A0412028B900082
:100ACB003EEAF0E50A2005026001042404120C4101
:100ADB0074FF04C0E0120CCB1208C5E50A20050216
:100AEB0060031208BCD0E0B50AE87F451208CF902E
:100AFB00003EE07F2B30E7047F2DF404C0E01208AA
:100B0B00DDD0E075F00A84C0F01208C6D0E0120800
:100B1B00C6020917791080027908C206C20880083C
:100B2B00D2D5790A8004790AC2D5E50A047002F598
:100B3B000AE4FAFDFEFF12089AFC7B08200113124F
:100B4B00089AFD7B1030000A12089AFE12089AFFD1
:100B5B007B20EC3382D592D55013C3E43000069F33
:100B6B00FFE49EFEE42001039DFDE49CFCE4CBF836
:100B7B00C201EC700CCFCECDCCE824F8F870F3802A
:100B8B0017C3EF33FFEE33FEED33FDEC33FCEB33EA
:100B9B00FB994002FB0FD8E9EB300105F8D0E0C41C
:100BAB0048B201C0E00AEC4D4E4F78207B0070C27A
:100BBB00EAB50A0040BCC0E0120C43D0F0D0E020F4
:100BCB000104C4C0E0C4B201C0F01208C6D0F0D515
:100BDB00F0EB02091712084709B4530B1F5809858C
:100BEB004C0981420B234F0B2B440B2B49099A4386
:100BFB000B31550A5E460ABE450A28470CFE5009C2
:100C0B00892D098D2E09B02B09912309AE200CE7F4
:100C1B002A094948000009A8E50AB4FF03750A062A
:100C2B0012089AFC12089AFD12089AFE12089AFFF3
:100C3B009000370202C8790AA2D5200314300509A7
:100C4B00B910020404B9080104A2D5200602500110
:100C5B00042002689202B509005034C0E07F2030B6
:100C6B0003197F30A20272067205500F120C9AC242
:100C7B0002C206C205C2087F30800F300503E9C0EF
:100C8B00E01208DD300503D0E0F9D0E0B509CC3037
:100C9B0005177F30B9100C1208DD7F583004077F21
:100CAB00788003B908031208DD3002057F2D020896
:100CBB00DD7F202008F87F2B2006F322920280CFC5
:100CCB007F00B40700500B2437F582E43400F58322
:100CDB00E0FF22286E756C6C2900D20112089A3045
:100CEB0001F8C201780930D50108F60209492D50E7
:100CFB0043495812089A2403B405004001E4900CB0
:100D0B00F9931208CE743A1208CED2037509040275
:100D1B000B1F900075E07002A3E060030210A69019
:100D2B000075F0A304F0122C5F9000A3EFF0FC9081
:100D3B0000A2E0FE6C5C9000A1F0ECFD7C00640670
:100D4B00700DEE700A90007E04F0E49000A1F0901C
:100D5B00007EE0600690008BE004F0ED4C7031906B
:100D6B0000A2E06406702990008BE0C39464748049
:100D7B00948040089000A07401F08005E49000A0DE
:100D8B00F0E490007EF090008BF09000A17406F0E0
:100D9B009000A1E0FF60117BFF7A4B79C3900012AA
:100DAB00E4F0A3EFF01209059000A1E024FE70031C
:100DBB00020FE524FD602D1460682405600302100A
:100DCB0096900071E014F0F470037403F0900074CB
:100DDB00E0640170028020900074E0640360030201
:100DEB001096802C900071E004F064047001F09078
:100DFB000074E06401700E900071E0FF900080E0E1
:100E0B00FD7B018017900074E06403600302109671
:100E1B00900071E0FF900080E0FDE4FB12173802B8
:100E2B001096900074E064036003020EBE9000A065
:100E3B00E06401707E900087E09000E4F090008801
:100E4B00E09000E5F0900089E09000E6F090008AD9
:100E5B00E0FF9000E7F07BFF7A4B79C89000E4E06D
:100E6B00FD900012E4F0A3EDF09000E5E0FD9000A2
:100E7B0014E4F0A3EDF09000E6E0FD900016E4F032
:100E8B00A3EDF0A3E4F0A3EFF01209059000747446
:100E9B0002F0121F0B90007F7403F0900072E0FFC2
:100EAB00A3E090006FCFF0A3EFF090007D7401F002
:100EBB00020F78900074E064036003020F789000D7
:100ECB00A0E06003020F78900071E0FF2487F582A9
:100EDB00E43400F583E0C3940574809480400E7471
:100EEB00872FF582E43400F583E024FBF0900012A9
:100EFB0074FFF0A3744BF0A374D6F0900071E02450
:100F0B0087F582E43400F583E0FF900015E4F0A34D
:100F1B00EFF07B017A00798C1208FF900071E0FFF3
:100F2B0075F018A4249BF582E5F0344AF583E4931D
:100F3B00FC740193FD74832FF582E43400F583E098
:100F4B00FF7E009000F7E0FBA3E0900008CBF0A33E
:100F5B00EBF0A37410F0A37401F0A37400F0A3746E
:100F6B008CF09000F5E0FAA3E0FB122301900074E3
:100F7B00E06401703E900071E0640360289000749F
:100F8B007402F0121F0B900071E090007FF0900044
:100F9B0072E0FFA3E090006FCFF0A3EFF090007D25
:100FAB007401F0800EE4900071F0121DAB90007490
:100FBB007403F090007DE064066003021096F090DD
:100FCB00007404F0E4900071F09000FEE0FEA3E0EA
:100FDB00FF1229CA122062021096900074E064037B
:100FEB006003021096900071E0FF2487F582E434D1
:100FFB0000F583E0D3945F74809480500E74872F38
:10100B00F582E43400F583E02405F090001274FFC0
:10101B00F0A3744BF0A374DBF0900071E02487F520
:10102B0082E43400F583E0FF900015E4F0A3EFF0C9
:10103B007B017A00798C1208FF900071E0FF75F04C
:10104B0018A4249BF582E5F0344AF583E493FC74F1
:10105B000193FD74832FF582E43400F583E0FF7E6A
:10106B00009000F7E0FBA3E0900008CBF0A3EBF0BF
:10107B00A37410F0A37401F0A37400F0A3748CF0AC
:10108B009000F5E0FAA3E0FB1223019000A3E0909F
:10109B0000A2F0900071E0900080F02290003AEEF8
:1010AB00F0A3EFF090003EEAF0A3EBF090003CECE5
:1010BB00F0A3EDF090004FECF0A3EDF0900046E0C4
:1010CB00FCA3E0FDAE047803CEC313CE13D8F9FF17
:1010DB00ED54077C0060047D0180027D00EF2DFB49
:1010EB00EE3CFA900046E0C313FCA3E013FDAF0304
:1010FB00AE0212058D900051EEF0A3EFF090004878
:10110B00E0D394204006E024E0F08005E490004812
:10111B00F0E490004CF090004CE0FFFDD3900052B7
:10112B00E09D900051E0940050030212FC900046A9
:10113B00E0FCA3E0FDEC60030212FCED24F0601D6B
:10114B0024F86030240C60030212FC900048E07518
:10115B00F00CA424DAF582E5F0342C802C90004CB2
:10116B00E0FF900048E075F010A4244EF582E5F006
:10117B003431801590004CE0FF900048E075F0246E
:10118B00A4243EF582E5F03437F583E5822FF58212
:10119B00E43583F583E49390004AF0900042E0FF3E
:1011AB00A3E090004DCFF0A3EFF090003EE0FEA344
:1011BB00E0FFD390003BE09F90003AE09E4003029B
:1011CB0012FC90004DE07002A3E060030212AD90A0
:1011DB00004BF090004BE0C3940874809480400364
:1011EB000212F3900040E0FEA3E0FF90003CE0FC15
:1011FB00A3E0FD9FEC9E505390004AE030E72D900A
:10120B000049E0640290003A7012E0FEA3E0FF9008
:10121B000044E0FAA3E0FB12241E802FE0FEA3E0C3
:10122B00FFA3E0FCA3E0FD9000448017900049E091
:10123B00701990003AE0FEA3E0FFA3E0FCA3E0FDF1
:10124B009000FEE0FAA3E0FB122B1890004AE02579
:10125B00E0F090003DE004F0700690003CE004F0FC
:10126B0090004FE0FEA3E0FFC390003DE09FFD9098
:10127B00003CE09EFC900046E0B5041DA3E0B505E4
:10128B001890003CEEF0A3EFF090003BE004F07000
:10129B005790003AE004F0804F90004BE004F002CE
:1012AB0011DE90003DE02408F090003CE03400F0AB
:1012BB0090004FE0FEA3E0FFC390003DE09FFD9048
:1012CB00003CE09EFCD3900047E09D900046E09CE4
:1012DB00501690003CEEF0A3EFF090004EE024FF90
:1012EB00F090004DE034FFF090004CE004F0021160
:1012FB002122900027EEF0A3EFF0A3ECF0A3EDF08A
:10130B00A3EAF0A3EBF0E4900038F0A3F0900034E4
:10131B00E0FBA3E0FAA3E0F9120535FF7003021519
:10132B004B900038E06003021481D3EF94807480FB
:10133B00948040057401F080D4900039E0704390A4
:10134B000033E0C313F9FF90002FE0FCA3E0FDC3D3
:10135B009FEC9400400FED9FFEEC940090002FF05B
:10136B00A3CEF0801D90002FE0FEA3E0FFE9FD7CF3
:10137B000012059F90002FECF0A3EDF09000397454
:10138B0001F0900039E06401600302145F900027C4
:10139B00E0FEA3E0FFA3E0FCA3E0FD90002DE0FB4B
:1013AB00A3E0900040CBF0A3EBF090002FE0FBA369
:1013BB00E0900042CBF0A3EBF0900031E0FBA3E018
:1013CB00900044CBF0A3EBF0900033E0FB90004691
:1013DB00E4F0A3EBF0900034E0FBA3E0FAA3E0F918
:1013EB00120535900048F0900037E0900049F090DE
:1013FB00002BE0FAA3E0FB1210A7900027E0FEA35E
:10140B00E0FFC390002CE09FFF90002BE09EFE902E
:10141B000033E0C313FD7C00D3EF9DEE9C900028BE
:10142B00E0400A2DF0900027E03CF080082FF09070
:10143B000027E03EF090002FE0FEA3E0FF4E60148B
:10144B00C3900028E09FF0900027E09EF0E490000E
:10145B002FF0A3F090002BE0FEA3E0FFC390002839
:10146B00E09F900027E09E400302154B900035E46F
:10147B0075F001021545E4900038F0A3E07041903F
:10148B000033E0F9FF90002FE0FCA3E0FDC39FECDD
:10149B009400400FED9FFEEC940090002FF0A3CE34
:1014AB00F0801D90002FE0FEA3E0FFE9FD7C001211
:1014BB00059F90002FECF0A3EDF09000397401F034
:1014CB00900039E06058900027E0FEA3E0FFC39046
:1014DB00002CE09FFF90002BE09EFE900033E0FD80
:1014EB007C00D3EF9DEE9C900028E0400A2DF090FD
:1014FB000027E03CF080082FF0900027E03EF090B2
:10150B00002FE0FEA3E0FF4E6014C3900028E09F85
:10151B00F0900027E09EF0E490002FF0A3F09000F5
:10152B002BE0FEA3E0FFC3900028E09F900027E094
:10153B009E500D900035E475F0021205F40213185D
:10154B0022E4900000F0A3F0D2B37F64FE122BE9EB
:10155B00C2B37F647E00122BE9D2B37F647E00128C
:10156B002BE9E4FFFE122BD3122C7A9000F9EEF04C
:10157B00A3EFF0E4FFFE122BD37F01122C497FF473
:10158B000E122BE97F037E00122BD37F03122C4903
:10159B007F0C122C447F0D122BD37F0C7E08122C48
:1015AB00497F0E7E00122BD37F007EB0122C497F19
:1015BB001E7E00122BD37FB0122C497FF40E122B00
:1015CB00E97F017E00122BD37F3F7E69122C497F6E
:1015DB00027E00122BD37F007E06122C497F101245
:1015EB002C427F11122BD37F307E68122C497F0542
:1015FB00122C427F06122C447F16122BD37F1C7E9B
:10160B00EF122C497F177E00122BD37F03122C492C
:10161B007F07122BD37F337E02122C497F0B122CA8
:10162B00427FF40E122BE97F0F122C427F41122CBA
:10163B00447F42122C447F48122C447F49122BD3F7
:10164B007F3F0E122C497F4A1E122C447F4B122CCB
:10165B00447F44122BD37F007EEF122C497F45121F
:10166B002C427F46122BD37F3F0E122C497F301E0C
:10167B00122BD37407FFFE122C497F317E00122BE5
:10168B00D37F047E02122C497F327E00122BD37F34
:10169B00047E02122C497F337E00122BD37F027EF5
:1016AB0005122C497F347E00122BD37F077E051247
:1016BB002C497F357E00122BD37F047E02122C49DE
:1016CB007F367E00122BD37F047E02122C497F378C
:1016DB007E00122BD37F027E05122C497F3A7E00AF
:1016EB00122BD37F027E03122C497F3B7E00122BE1
:1016FB00D37F027E03122C497F23122C427F2412AC
:10170B002C447F25122BD37F007E80122C497F4FD8
:10171B00122C427F4E122C447F22122BD3E4FF1249
:10172B002AC49000FEE0FEA3E0FF0229CA9000004D
:10173B00EFF0A3EDF0EB700302180B74FF9000FCBD
:10174B00F0A3F0900001E0FD75F018A42401F582E0
:10175B00E5F03449F583E493FE740193FFC006C0B2
:10176B000775F018EDA42403F582E5F03449F583F1
:10177B00E493FC740193FD900001E075F018A42430
:10178B0005F9744935F0FA90000B74FFF0A3EAF0F9
:10179B00A3E9F09000F5E0FAA3E0FBA3E0FFA3E0E0
:1017AB00900008CFF0A3EFF0A37410F0D007D00691
:1017BB001223019000FC74F8F0A3E4F0900000E019
:1017CB00FD75F018A42401F582E5F03449F583E4A6
:1017DB0093FE740193FFC006C00775F018EDA424A7
:1017EB0003F582E5F03449F583E493FC740193FD32
:1017FB00900000E075F018A42405F974490218CD87
:10180B0074FF9000FCF0A3F0900001E0FD75F01860
:10181B00A42499F582E5F0344AF583E493FE740130
:10182B0093FFC006C00775F018EDA4249BF582E565
:10183B00F0344AF583E493FC740193FD900001E0CE
:10184B0075F018A4249DF9744A35F0FA90000B74C6
:10185B00FFF0A3EAF0A3E9F09000F5E0FAA3E0FBB8
:10186B00A3E0FFA3E0900008CFF0A3EFF0A3741068
:10187B00F0D007D0061223019000FC74F8F0A3E41B
:10188B00F0900000E0FD75F018A42499F582E5F0C6
:10189B00344AF583E493FE740193FFC006C00775C9
:1018AB00F018EDA4249BF582E5F0344AF583E4931C
:1018BB00FC740193FD900000E075F018A4249DF9D1
:1018CB00744A35F0FA90000B74FFF0A3EAF0A3E929
:1018DB00F09000F5E0FAA3E0FBA3E0FFA3E090009B
:1018EB0008CFF0A3EFF0A37410F0D007D0061223AB
:1018FB00012290007BE07002A3E06003021AB89013
:10190B00007BF0A304F0900081E0FEA3E0FF9000C9
:10191B0072E0FCA3E0FD6F7002EC6E7003021AB86C
:10192B0090001274FFF0A3744BF0A374DEF0A3ECE1
:10193B00F0A3EDF07B017A00798C1208FF74FF9015
:10194B0000FCF0A3F09000F7E0FFA3E0900008CFBD
:10195B00F0A3EFF0A37410F0A37401F0A37400F0E4
:10196B00A3748CF09000F5E0FAA3E0FB7D2C7C01D6
:10197B007F6D7E0012230190007DE024FE604714F2
:10198B006074147003021A31147003021A65240474
:10199B006003021AA990007FE025E025E024D8F52A
:1019AB0082E43400F583E0FD7C0090006FE0FEA341
:1019BB00E0FF900072E0FAA3E0FB900006740AF0DF
:1019CB00A37446021A5F90007FE025E025E024D93E
:1019DB00F582E43400F583E0FD7C0090006FE0FEBF
:1019EB00A3E0FF900072E0FAA3E0FB900006740AFC
:1019FB00F0A3746E805E90007FE025E025E024DA92
:101A0B00F582E43400F583E0FD7C0090006FE0FE8E
:101A1B00A3E0FF900072E0FAA3E0FB900006740ACB
:101A2B00F0A37496802E90007FE025E025E024DB68
:101A3B00F582E43400F583E0FD7C0090006FE0FE5E
:101A4B00A3E0FF900072E0FAA3E0FB900006740A9B
:101A5B00F0A374BEF01225128044904A81E493FEE9
:101A6B00740193FF904A83E493FC740193FD9000FF
:101A7B00F7E0FBA3E0900008CBF0A3EBF0A374100E
:101A8B00F0A374FFF0A3744AF0A37485F09000F5F3
:101A9B00E0FAA3E0FB12230190007DE004F090003C
:101AAB0072E0FFA3E0900081CFF0A3EFF022900053
:101ABB000FEEF0A3EFF0900013EBF0900011ECF0B1
:101ACB00A3EDF0900018ECF0A3EDF0900014E0FF04
:101ADB00131313541FFEEF54077F0060027F01EEB8
:101AEB002FFF900014E0C313FEEF8EF0A490001AAA
:101AFB00F0900013E024E0F0E4F990001AE0FFE925
:101B0B00C39F4003021C3D900014E0FF7E00640C59
:101B1B007012900013E075F00CA424DAF582E5F056
:101B2B00342C8033EF64104E7012900013E075F07C
:101B3B0010A4244EF582E5F03431801B900014E0A4
:101B4B0064186003021C3D900013E075F024A4247C
:101B5B003EF582E5F03437F583E58229F582E435ED
:101B6B0083F583E493900016F0E4900017F0900057
:101B7B0017E0C39408748094804003021C399000D2
:101B8B0016E030E71390000FE0FEA3E0FFA3E0FCAC
:101B9B00A3E0FD9000FC8017900015E070149000FE
:101BAB000FE0FEA3E0FFA3E0FCA3E0FD9000FE121C
:101BBB002B13900016E025E0F0900012E004F0707B
:101BCB0006900011E004F09000F7E0FEA3E0FF9018
:101BDB000011E0FCA3E0FDC39FEC9E505590001854
:101BEB00E0FEA3E0FFC3ED9FFDEC9EFC900014E034
:101BFB007A00B50530EAB5042C900011EEF0A3EF96
:101C0B00F0900010E004F0700690000FE004F090EC
:101C1B0000F5E0FEA3E0FFC3900010E09F90000FE3
:101C2B00E09E400A22900017E004F0021B790902A3
:101C3B001B052290000BEFF0A3EDF0A3EBF0E4906B
:101C4B000012F0A3740CF090000BE0FA75F0C8A42E
:101C5B00FFAEF07C007D6412059FAB079000FEA3E6
:101C6B00E0900012F0EAFD7C00C3940A748094802B
:101C7B00502090000E7420F0A3F090000BE075F054
:101C8B006484E5F075F00A84E5F02430900010F0E0
:101C9B008051C3ED9464EC64809480501C90000ED2
:101CAB007420F090000BE075F06484AFF0EF75F0EA
:101CBB000A84243090000F801E90000BE0FF75F01B
:101CCB006484243090000EF0EF75F06484AFF0EF75
:101CDB0075F00A842430A3F0EF75F00A84E5F02444
:101CEB0030A3F09000117425F090000CE0FF7E0003
:101CFB00A3E0FD7C007A0090001AE4F0A3740AF0D4
:101D0B00A374F8F0A3E4F01228D090000BE0D39466
:101D1B0064748094804038A3E0FF7E00A3E0FD7CD8
:101D2B000090001AE4F0A3740AF0A3E4F0A3741F6C
:101D3B00F0900013E090001EF0A37401F0A3740068
:101D4B00F0A3740EF0A37401F07BC87A008040906E
:101D5B0000FE7407F0A374E0F090000CE0FF7E002F
:101D6B00A3E0FD7C0090001AE4F0A3740AF0A3E456
:101D7B00F0A3741FF0900013E090001EF0A3740109
:101D8B00F0A37400F0A3740EF0E4A3F07BC8FA1276
:101D9B0021B7900012E0FF9000FEE4F0A3EFF022D9
:101DAB00E4900000F09000FEE0FEA3E0FF1229CAD1
:101DBB009000FC74BCF0A37440F09000F7E0FFA31C
:101DCB00E0900008CFF0A3EFF0A37410F0A374FF22
:101DDB00F0A37448F0A374F5F09000F5E0FAA3E0DB
:101DEB00FB7D0A7C007F3C7E001223019000FC747B
:101DFB00FCF0A37407F09000F7E0FFA3E09000085D
:101E0B00CFF0A3EFF0A37410F0A374FFF0A374480A
:101E1B00F0A374D7F09000F5E0FAA3E0FB7D2C7CE7
:101E2B00017F057E001223019000FC74F8F0A3E4FF
:101E3B00F0904A9993FE740193FF904A9BE493FCB4
:101E4B00740193FD9000F7E0FBA3E0900008CBF04A
:101E5B00A3EBF0A37410F0A374FFF0A3744AF0A3E8
:101E6B00749DF09000F5E0FAA3E0FB12230174FFE0
:101E7B009000FCF0A3F09000007401F0900000E0E3
:101E8B00FDC3940974809480507575F018EDA424EB
:101E9B0099F582E5F0344AF583E493FE740193FFE0
:101EAB00C006C00775F018EDA4249BF582E5F0344D
:101EBB004AF583E493FC740193FD900000E075F008
:101ECB0018A4249DF9744A35F0FA90000B74FFF0B6
:101EDB00A3EAF0A3E9F09000F5E0FAA3E0FBA3E09E
:101EEB00FFA3E0900008CFF0A3EFF0A37410F0D0A5
:101EFB0007D006122301900000E004F0021E872297
:101F0B00E4900000F09000FEE0FEA3E0FF1229CA6F
:101F1B009000FC74BCF0A37440F09000F7E0FFA3BA
:101F2B00E0900008CFF0A3EFF0A37410F0A374FFC0
:101F3B00F0A37448F0A374E5F09000F5E0FAA3E089
:101F4B00FB7D0A7C007F327E001223019000FC7423
:101F5B00FCF0A37407F09000F7E0FFA3E0900008FB
:101F6B00CFF0A3EFF0A37410F0A374FFF0A37448A9
:101F7B00F0A374D7F09000F5E0FAA3E0FB7D2C7C86
:101F8B00017F057E0012230174FF9000FCF0A3F08B
:101F9B00E4900000F0900000E0FDC3940474809482
:101FAB00804003022061ED75F018A42421F582E432
:101FBB00344AF583E493FE740193FFC006C007ED2A
:101FCB0075F018A42423F582E4344AF583E493FCDA
:101FDB00740193FD900000E075F018A42425F974AA
:101FEB004A35F0FA90000B74FFF0A3EAF0A3E9F086
:101FFB009000F5E0FAA3E0FBA3E0FFA3E09000085C
:10200B00CFF0A3EFF0A37410F0D007D0061223018A
:10201B00900000E075F028A42446FDE435F0FC9018
:10202B00001AE4F0A3740AF0A37407F0A374E0F0B1
:10203B007BC87A007F0A7E001228D0900000E075E2
:10204B00F028A42446FB7D0AE4FF121C3E900000FE
:10205B00E004F0021FA022E4900000F09000FC745A
:10206B00BCF0A37440F09000F7E0FFA3E0900008F1
:10207B00CFF0A3EFF0A37410F0A374FFF0A3744898
:10208B00F0A374C0F09000F5E0FAA3E0FB7D0A7CAE
:10209B00007F197E001223019000FC74FCF0A374E6
:1020AB0007F09000F7E0FFA3E0900008CFF0A3EF5C
:1020BB00F0A37410F0A374FFF0A37448F0A374D7CB
:1020CB00F09000F5E0FAA3E0FB7D2C7C017F057E10
:1020DB00001223019000FC74F8F0A3E4F090490186
:1020EB0093FE740193FF904903E493FC740193FDF9
:1020FB009000F7E0FBA3E0900008CBF0A3EBF0A37C
:10210B007410F0A374FFF0A37449F0A37405F0905E
:10211B0000F5E0FAA3E0FB12230174FF9000FCF042
:10212B00A3F09000007401F0900000E0FDC3940850
:10213B0074809480507575F018EDA42401F582E538
:10214B00F03449F583E493FE740193FFC006C00796
:10215B0075F018EDA42403F582E5F03449F583E41A
:10216B0093FC740193FD900000E075F018A4240516
:10217B00F9744935F0FA90000B74FFF0A3EAF0A361
:10218B00E9F09000F5E0FAA3E0FBA3E0FFA3E090F9
:10219B000008CFF0A3EFF0A37410F0D007D0061215
:1021AB002301900000E004F002213322900014EE92
:1021BB00F0A3EFF0A3ECF0A3EDF0A3EAF0A3EBF0A8
:1021CB00E4900023F0A3F0A3F0A3F090001FA3E092
:1021DB00FAA3E04A700302230090001FE0FBA3A3C5
:1021EB00E0F912000EAD07AC0690001EE0F9FF7E81
:1021FB000012058DEEC313FEEF13FDAC06E9FF9045
:10220B00001AE0FAA3E0FBD39FEA94004014EB9F83
:10221B00FFEA9400C313FEEF13FF900025EEF0A32B
:10222B00EFF0C3900019E09D900018E09C4017A3BD
:10223B00E09DFF900018E09CC313FEEF13FF90008E
:10224B0023EEF0A3EFF0900023E0FEA3E0FF90005D
:10225B0015E02FFF900014E03EFEC006C007900073
:10226B0025E0FCA3E0FD900017E02DFD900016E0AB
:10227B003CFC900018E0FAA3E0FB900014E0F8A3FC
:10228B00E02BFBE83ACB24FFCB34FFFAC002C003B0
:10229B0090001AE0FAA3E0FB900016E0F8A3E02B05
:1022AB00FBE83ACB24FFFEEB34FF90002DF0A3CEDE
:1022BB00F0E4A3F0A3F090001CE0FFA3E09000314A
:1022CB00CFF0A3EFF090001EE0900033F090001FD2
:1022DB00E0F9A3E0FAA3E0900034C9F0A3EAF0A37D
:1022EB00E9F0900022E0900037F0D003D002D00745
:1022FB00D0061212FD22900002EEF0A3EFF0A3EC39
:10230B00F0A3EDF0A3EAF0A3EBF0900002E0FEA344
:10231B00E0FF90000EF0900007E02FF0900006E039
:10232B003EF0900004E0FEA3E0FF900009E02FF0E8
:10233B00900008E03EF090000BE0FBA3E0FAA3E076
:10234B00F9120535FFD3947E400302241DEFC3948D
:10235B0020500302241D900006E0FEA3E0FF900036
:10236B0003E09F900002E09E401F90000EE0FF9064
:10237B000002E4F0A3EFF090000AE0FF900005E00C
:10238B002FF0900004E03400F0900008E0FEA3E092
:10239B00FF900004E0FCA3E0FDC39FEC9E50739004
:1023AB000002E0FEA3E0FF120535FB90000AE0906F
:1023BB000014F0E4A3F0121AB990000AE0C313FF63
:1023CB00900003E02FF0900002E03400F090000B3F
:1023DB00E0FBA3E0FAA3E0F9120535B43A277BFF43
:1023EB007A2C79CE900002E0FFA3E0900012CFF0A0
:1023FB00A3EFF0900004E0FFA3E0900014CFF0A354
:10240B00EFF012090590000CE475F0011205F402CF
:10241B00234122900055ECF0A3EDF0A3EAF0A3EBDF
:10242B00F0900053EEF0A3EFF0C39401EE94004054
:10243B0013E024FFFE900053E034FF90005DF0A307
:10244B00CEF0800F900053E0FFA3E090005DCFF043
:10245B00A3EFF0900055E0FEA3E0FFC39401EE94D0
:10246B0000400CEF24FFFFEE34FF90005F800B90D9
:10247B000055E0FFA3E090005FCFF0A3EFF09000DA
:10248B005FE0FFA3E0900059CFF0A3EFF090005670
:10249B00E02402FF900055E03400FEC390005AE0A8
:1024AB009F900059E09E505E90005DE0FFA3E0908E
:1024BB00005BCFF0A3EFF0900054E02402FD9000FE
:1024CB0053E03400FC90005BE0FEA3E0FFC39DEE05
:1024DB009C5023900059E0FCA3E0FD900057E0FADC
:1024EB00A3E0FB122B1890005CE004F070C9900085
:1024FB005BE004F080C190005AE004F0708F900014
:10250B0059E004F0808722900000EEF0A3EFF0A3D7
:10251B00ECF0A3EDF0A3EAF0A3EBF0E4900008F0ED
:10252B00A3F0A3F0900000E0FEA3E0FFC3EB9FFD40
:10253B00EA9EFCE41201D1C004C005C006C007909E
:10254B000002E0FCA3E0FDE41201D1A804A905AA56
:10255B0006AB07D007D006D005D00412012FE4FB41
:10256B00FA79C8784212002612020A900008EFF09E
:10257B007BFF7A4B79E1900004E0FDA3E090001221
:10258B00CDF0A3EDF0900000E0FDA3E0900014CDA2
:10259B00F0A3EDF0900002E0FDA3E0900016CDF06B
:1025AB00A3EDF0A3E4F0A3EFF0120905900008E00F
:1025BB00FF900006E0FDA3E0FB121C3E900008E03C
:1025CB00C3946474809480401A900072E0FFA3E07F
:1025DB0090006FCFF0A3EFF090007DE004F0640665
:1025EB007001F022C0E0C0F0C083C082C0D075D0B3
:1025FB0000C000C001C002C003C004C005C006C0BB
:10260B0007900077E0FCA3E0FDA3E0FEA3E0FFE46E
:10261B00FAF9F8EF2401FFEA3EFEE93DFDE83CFC48
:10262B009000771207EA758CD8758AF0900075E0E8
:10263B007002A3E06007900075E4F0A3F090007BBC
:10264B00E07002A3E0601890007BE475F0011205C6
:10265B00F4FEE5F064284E700690007BF0A3F0E4E6
:10266B007B64FAF9F8900077E0FCA3E0FDA3E0FEB1
:10267B00A3E0FF122B5AAC00AD01AE02AF03EC4D41
:10268B004E4F700E900073E004F07006900072E0F5
:10269B0004F0D007D006D005D004D003D002D0016F
:1026AB00D000D0D0D082D083D0F0D0E032900020B8
:1026BB00ECF0A3EDF090001EEEF0A3EFF0900022F3
:1026CB00EAF0A3EBF0E4900028F0A3F0D3EF9BEE3D
:1026DB009A4003022780900024E0FEA3E0FF9000C5
:1026EB0020E0FCA3E0FD9FEC9E4003022780A3E0CB
:1026FB00FAA3E0FB90006DEEF0A3EFF090001E123A
:10270B00278190001EE0FEA3E0FFC3900023E09F13
:10271B00FF900022E09ECF2401CF340090001EF0EA
:10272B00A3EFF0A3E0FEA3E0FFC3900025E09FFF23
:10273B00900024E09ECF2401CF3400900020F0A322
:10274B00EFF090001E74FFF5F012060A45F06025BD
:10275B00900020E0FFA3E0900028CFF0A3EFF090D3
:10276B00002874FFF5F012060A45F060D59000269C
:10277B00122C0A80EA22E0FEA3E0FF900067EEF045
:10278B00A3EFF0A3ECF0A3EDF09000FBE07F44701F
:10279B0042FE122BD3EB900067122BC5A3E0FEA3D6
:1027AB00E0FF122C497F467E00122BD390006DE088
:1027BB00FEA3E0FF122C497F4E7E00122BD390001C
:1027CB0067E0FEA3E0FF122C497F4F7E00122BD354
:1027DB00A380427E00122BD390006EE09000691212
:1027EB002BC5900067E0FEA3E0FF122C497F467ECD
:1027FB0000122BD3AE02AF03122C497F4E7E001278
:10280B002BD3A3E0FEA3E0FF122C497F4F7E0012D7
:10281B002BD3900067E0FEA3E0FF122C497F227EB2
:10282B0000122BD322787FE4F6D8FD758121022884
:10283B0077022C25E493A3F8E493A34003F68001DD
:10284B00F208DFF48029E493A3F85407240CC8C3DF
:10285B0033C4540F4420C8834004F456800146F619
:10286B00DFE4800B0102040810204080902A4BE427
:10287B007E019360BCA3FF543F30E509541FFEE477
:10288B0093A360010ECF54C025E060A840B8E49339
:10289B00A3FAE493A3F8E493A3C8C582C8CAC5837B
:1028AB00CAF0A3C8C582C8CAC583CADFE9DEE78000
:1028BB00BEE0FFA3E090001CCFF0A3EFF090000070
:1028CB00E0FEA3E0FF900014EEF0A3EFF0A3ECF01A
:1028DB00A3EDF0EB4A606390001AE07002A3E06096
:1028EB0059900016E0FCA3E0FDAE02AF039000147C
:1028FB00E0FAA3E02FFFEA3ECF24FFFBEF34FFFA11
:10290B0090001AE0FEA3E0FF900016E0F8A3E02F82
:10291B00FFE83ECF24FFCF34FF900024F0A3EFF06D
:10292B0090001CE0FFA3E0900026CFF0A3EFF09007
:10293B000014E0FEA3E0FF1226B822C0E0C083C063
:10294B0082C0D075D000C004C007309865C298AF64
:10295B00999000D6E0FCEC20E75830E60FEF640AC4
:10296B009000D660028047E04480800BEF640D70CE
:10297B000C9000D6E04440F0A3E0F080359000D6F8
:10298B00E0543FFCA3E024A4F58274003CF583EFF4
:10299B00F09000D7E004F070069000D6E004F0D37E
:1029AB009000D7E094319000D6E094004004E4F01E
:1029BB00A3F0D007D004D0D0D082D083D0E0329017
:1029CB000002EEF0A3EFF0E4A3F0A3F09000F6E02A
:1029DB0024FFFB9000F5E034FFFA9000F8E024FFB1
:1029EB00FE9000F7E034FF90006DF0A3CEF0E4FD15
:1029FB00FCFFFE122786E4FAFBD39000F6E09B90D7
:102A0B0000F5E09A4039E4900004F0A3F09000F751
:102A1B00E0FEA3E0FFC3900005E09F900004E09E62
:102A2B005016900002122C0A900005E004F070DDA5
:102A3B00900004E004F080D50BBB00010A80BA22A1
:102A4B0044007700000000420075000042007B004C
:102A5B0000420072000042008103E74100A30041E5
:102A6B0000A2004100A10041008B004100A00041E9
:102A7B00007E00410074014100710041007F004164
:102A8B00007D0042006F00004400870000000044FE
:102A9B0000837D7565954200D600004200FCFFFF68
:102AAB004200FE00005000D80F0F0F0A0A0A0A0856
:102ABB000505050300000000009000FBEFF07023FC
:102ACB007D307C687F11FE122CB07C2B122CAA90CF
:102ADB0000F77401F0A37440F09000F5E4F0A374D8
:102AEB00F0F0227D387C687F117E00122CB07C6B5D
:102AFB00122CAA9000F7E4F0A374F0F09000F57498
:102B0B0001F0A37440F022FDE0FAA3E0FB9000611A
:102B1B00EEF0A3EFF0900065EAF0A3EBF09000630A
:102B2B00ECF0A3EDF0900061E0FAA3E0FBFFAE0246
:102B3B00C007A3E0FFA3E090006DCFF0A3EFF0D0B0
:102B4B0007122786900065E0FEA3E0FF022C0FC260
:102B5B00D5E830E70FB2D5E4C39BFBE49AFAE499CE
:102B6B00F9E498F8EC30E717B2D5122B9012071056
:102B7B00E4C39BFBE49AFAE499F9E498F880031216
:102B8B00071030D50DE4C39FFFE49EFEE49DFDE4EA
:102B9B009CFC22EFB40A07740D122BA9740A30980F
:102BAB0011A899B8130CC2983098FDA899C298B87F
:102BBB0011F63099FDC299F59922FEE04EFEA3E085
:102BCB00FF122C497F457E00AD07AC06C2A7C2A6FB
:102BDB00ECF590AF058F80C2A5D2A5D2A722D3EF7B
:102BEB009400EE940040147D6E7C00ED1D70011C72
:102BFB00ED4C70F7EF1F70E61E80E322900000E0B3
:102C0B00FEA3E0FFAD07AC06C2A7D2A6ECF590AFD2
:102C1B00058F80C2A5D2A5D2A722122C9412154CD7
:102C2B00122062122CBE7BFF7A4B79B91209051266
:102C3B000D1D1218FD80F87E00122BD3E4FFAD079B
:102C4B00AC06C2A7D2A6ECF590AF058F80C2A5D279
:102C5B00A5D2A72220B4037F012220B5037F022235
:102C6B0020B6037F052220B7037F0622E4FF2275DF
:102C7B0090FF7580FFC2A7D2A6C2B200AF90EFFE45
:102C8B00AD80EDFFD2B2D2A7227598507589207511
:102C9B008780758DF3858D8BD2AFD28ED299227DA5
:102CAB003F7F017E00AB05AA04122BD3AE02AF030C
:102CBB00022C49438901758CD8758AF0D2A9D2AF01
:102CCB00D28C22783D25642C793D25640D0A0000B9
:102CDB000000000000000000000000000000003FAA
:102CEB0040000000000000000030004000300040B9
:102CFB0000000009000BC03D000BC03D000900188F
:102D0B00C024407FE0224031800000180024C01B0B
:102D1B00000D803240018003801C4027401C80073F
:102D2B0040004010006000000000000000000000A8
:102D3B0000000000001F80204040200000402020A9
:102D4B00401F8000000000090006001F80060009DC
:102D5B00000000040004003F800400040000000099
:102D6B0010006000000000000000000400040004DC
:102D7B000004000400000000000040000000000000
:102D8B00000000002001C006003800400000001FBA
:102D9B00802040204020401F800000000010403F5A
:102DAB00C000400000000018C02140224024401801
:102DBB0040000010802040244024401B8000000273
:102DCB00000D0011003FC0014000003C8024402456
:102DDB00402440238000001F8024402440344003C3
:102DEB008000003000200027C03800200000001BAE
:102DFB00802440244024401B8000001C0022C02261
:102E0B004022401F8000000000000008400000002E
:102E1B000000000000000004600000000000000043
:102E2B000004000A0011002080404009000900093D
:102E3B000009000900000000004040208011000A3A
:102E4B000004001800200023402400180000001F7D
:102E5B00802040274029401F400000004007C03918
:102E6B00000F0001C0004020403FC0244024401B05
:102E7B008000001F80204020402040308000002038
:102E8B00403FC0204020401F80000020403FC02416
:102E9B00402E4030C0000020403FC024402E003068
:102EAB000000000F001080204022403380020020E1
:102EBB00403FC0040004003FC02040204020403F62
:102ECB00C02040204000000060202020203FC02078
:102EDB0000200020403FC024400B0030C020402089
:102EEB00403FC020400040004000C03FC03C0003BA
:102EFB00C03C003FC0000020403FC00C4023003FBF
:102F0B00C020001F802040204020401F8000002058
:102F1B00403FC024402400180000001F80214021A6
:102F2B004020E01FA0000020403FC0244026001995
:102F3B00C0004018C02440244022403180000030A3
:102F4B000020403FC020403000000020003F8000A8
:102F5B004000403F80200020003E0001C0070038A9
:102F6B00002000380007C03C0007C03800000020DC
:102F7B004039C0060039C02040000020003840070F
:102F8B00C0384020000000304021C026403840208F
:102F9B00C00000000000007FE04020402000000047
:102FAB000070000C00038000400000000040204037
:102FBB00207FE00000000000002000400020000007
:102FCB000000000010001000100010001000100096
:102FDB00000000400000000000000000000280051F
:102FEB0040054003C0004020003FC00440044003A4
:102FFB0080000000000380044004400640000000F5
:10300B00000380044024403FC000400000038005C3
:10301B0040054003400000000004401FC024402432
:10302B00402000000002E00550055006500420200F
:10303B00403FC00440040003C00040000004402790
:10304B00C000400000000000100010041027E0003A
:10305B0000000020403FC00140070004C004402096
:10306B004020403FC000400040000007C004000764
:10307B00C0040003C00000044007C0044004000368
:10308B00C0004000000380044004400380000004A3
:10309B001007F0045004400380000000000380047C
:1030AB0040045007F00010044007C0024004000425
:1030BB00000000000006400540054004C000000071
:1030CB000004001F80044000400000040007800043
:1030DB0040044007C000400400070004C001800604
:1030EB00000400060001C0070001C0060000000438
:1030FB004006C0010006C004400000041007100485
:10310B00E00180060004000000044005C0064004F6
:10311B004000000000000004007BE04020000000A5
:10312B000000000000FFF000000000000040207BCA
:10313B00E004000000000040008000400020002060
:10314B000040000000000000000000000000000034
:10315B000000000000000000001FCC000C0000006D
:10316B000000000000080030006000080030006024
:10317B00000000022003FC1E20022003FC1E200284
:10318B0020000000000E1811043FFF10840C780083
:10319B000000000F0010840F3800C007781884005F
:1031AB0078000000780F8410C411240E9800E400FE
:1031BB008400080800680070000000000000000098
:1031CB0000000000000000000007E0181820044079
:1031DB00020000000040022004181807E000000065
:1031EB000000000240024001800FF001800240020B
:1031FB004000000080008000800FF80080008000FD
:10320B008000000001000D000E0000000000000017
:10321B000000000000008000800080008000800023
:10322B008000800000000C000C000000000000007B
:10323B000000000000000600180060018006001866
:10324B00002000000007F00808100410040808070D
:10325B00F000000000080408041FFC000400040038
:10326B0000000000000E0C10141024104411840EEA
:10327B000C000000000C1810041104110412880C2F
:10328B00700000000000E00320042408241FFC0051
:10329B0024000000001F98108411041104108810E2
:1032AB00700000000007F008881104110418880052
:1032BB0070000000001C00100010FC13001C00101C
:1032CB0000000000000E3811441084108411440ECD
:1032DB0038000000000700088C10441044088807D1
:1032EB00F00000000000000000030C030C000000C5
:1032FB0000000000000000000101060000000000BB
:10330B00000000000000800140022004100808109B
:10331B0004000002200220022002200220022002D0
:10332B0020000000001004080804100220014000D7
:10333B0080000000000E001200100C106C10800FAB
:10334B0000000003E00C1813E4142417C40828072A
:10335B00D000000004003C03C41C40074000E40004
:10336B001C000410041FFC1104110411040E88002E
:10337B0070000003E00C1810041004100410081C5B
:10338B0010000010041FFC100410041004080807A0
:10339B00F0000010041FFC1104110417C4100408E2
:1033AB0018000010041FFC1104110017C0100008B6
:1033BB0000000003E00C181004100410441C7800EB
:1033CB0040000010041FFC10840080008010841F3C
:1033DB00FC10040000100410041FFC100410040067
:1033EB0000000000030001100110011FFE1000106F
:1033FB0000000010041FFC110403801464181C103F
:10340B0004000010041FFC1004000400040004005E
:10341B000C000010041FFC1F0000FC1F001FFC1001
:10342B0004000010041FFC0C04030000E010181F24
:10343B00FC100007F008081004100410040808071B
:10344B00F0000010041FFC10841080108010800FFF
:10345B0000000007F0081810241024101C080A079D
:10346B00F2000010041FFC1104110011C011300EEA
:10347B000C000400000E1C11041084108410441C5A
:10348B003800001800100010041FFC100410001866
:10349B0000000010001FF810040004000410041FAB
:1034AB00F8100010001E0011E0001C007013801CAF
:1034BB000010001FC0103C00E01F0000E0103C1F7C
:1034CB00C000001004180C163401C001C0163418CB
:1034DB000C100410001C00130400FC13041C00103F
:1034EB000000000804101C1064108413041C04104A
:1034FB001800000000000000007FFE400240024068
:10350B00020000000030000C0003800060001C0073
:10351B0003000000004002400240027FFE0000005A
:10352B000000000000000020004000400040002090
:10353B00000000000100010001000100010001007A
:10354B0001000100004000400020000000000000CE
:10355B0000000000000098012401440144014400D4
:10356B00FC000410001FFC0088010401040088000B
:10357B0070000000000070008801040104010400C9
:10358B008800000000007000880104010411081F6E
:10359B00FC0004000000F801440144014401440014
:1035AB00C800000000010401040FFC1104110411F8
:1035BB00001800000000D601290129012901C901C9
:1035CB0006000010041FFC00840100010001040030
:1035DB00FC000400000104190419FC0004000400A1
:1035EB000000000000000300010101190119FE0099
:1035FB0000000010041FFC0024004001B4010C016A
:10360B000400000000100410041FFC000400040060
:10361B00000000010401FC0104010001FC01040194
:10362B000000FC010401FC00840100010001040006
:10363B00FC0004000000F801040104010401040073
:10364B00F80000010101FF0085010401040088005E
:10365B0070000000000070008801040104010501E6
:10366B00FF00010104010401FC00840104010001BD
:10367B00800000000000CC0124012401240124015E
:10368B0098000000000100010007F801040104008C
:10369B00000000010001F80004000400040108010F
:1036AB00FC0004010001800170000C00100160019E
:1036BB0080010001F0010C003001C00030010C0151
:1036CB00F0010000000104018C00740170018C01F9
:1036DB00040000010101810171000E00180160015D
:1036EB0080010000000184010C01340144018401BC
:1036FB000C0000000000000000000001003EFC4038
:10370B000240020000000000000000FFFF0000006C
:10371B000000000000400240023EFC0100000000DF
:10372B00000000000060008000800040004000208E
:10373B00002000000000000000000000000000005E
:10374B00000000000000000000000000000000006E
:10375B00000000000000000000000000000000005E
:10376B000000000000000F80380FFE380F8038007B
:10377B00000000000000000000000000000000003E
:10378B00000100000600000C0000380000310000B2
:10379B000600000C000038000030000000000000A4
:1037AB0000000061800067F807F98000618000610C
:1037BB00800061800061800067F807F980006180FC
:1037CB0000000000000000000001C0E003E0F00674
:1037DB0030080418081FFFFE040E080787F003814A
:1037EB00E000000000000001F000060C00040408DB
:1037FB00060C7001F9C0000E00003BE000EC18074E
:10380B000808040C180003E00000000001E00007AA
:10381B00F003F818041C0804170807E1D003C0E0F4
:10382B000023B0003C08002008000010000000003E
:10383B0000000100003100003200001C00000000FD
:10384B00000000000000000000000000000000006D
:10385B00000000000000000000000000000000005D
:10386B000000007F0001FFC00780F00C0018100063
:10387B0004200002000000000000200002100004E1
:10388B000C00180780F001FFC0007F000000000053
:10389B0000000000000000000000000000000042DB
:1038AB0000006600006600003C0000180003FFC02B
:1038BB00001800003C00006600006600004200009B
:1038CB0000000008000008000008000008000008C5
:1038DB000001FFC0000800000800000800000800FD
:1038EB000008000000000000010000310000320061
:1038FB00001C0000000000000000000000000000A1
:10390B00000000000000000000000008000008009C
:10391B000008000008000008000008000008000074
:10392B000800000800000800000000000000000074
:10393B0000000038000038000038000000000000D4
:10394B00000000000000000000000000000000006C
:10395B00000000000600001C000070000180000E3B
:10396B000000380000C0000700001C000030000001
:10397B00000000000000007F8001FFE00380700664
:10398B00001804000804000806001803807001FFEB
:10399B00E0007F8000000000000000000001000834
:1039AB0001000801000803FFF807FFF800000800FA
:1039BB00000800000800000000000000000001C02B
:1039CB003802C058040098040118040218040418A3
:1039DB00061C1803F81801E0F800000000000000B6
:1039EB00000001C0E003C0F004000804080804084C
:1039FB000806180803F41801E7F00001E0000000C6
:103A0B00000000000000000300000D00001100008A
:103A1B00610000810803010807FFF80FFFF80001A0
:103A2B00080001080000000000000000E007FCD0C7
:103A3B0006080806100806100806100806183806AF
:103A4B000FF00607C0000000000000000000003F60
:103A5B008001FFE0038430020818041008041008EA
:103A6B00041008071810030FF00007C00000000037
:103A7B00000000000003C000070000060000060065
:103A8B00F80607F806180006E0000700000600001D
:103A9B0000000000000001E1E003F7F00634100421
:103AAB001808041808040C08040C0806161803F36D
:103ABB00F001C1E000000000000000F80003FC3042
:103ACB000306380402080402080402080404100365
:103ADB0008F001FFC0007F000000000000000000A4
:103AEB00000000000000000000000070380070387B
:103AFB000070380000000000000000000000000013
:103B0B00000000000000000000000000000000307A
:103B1B001A00301C00000000000000000000000034
:103B2B00000000000000000000000800001400006E
:103B3B0022000041000080800100400200200400B0
:103B4B001008000800000000000000210000210008
:103B5B0000210000210000210000210000210000B5
:103B6B0021000021000021000000000000000000E7
:103B7B0000080008040010020020010040008080B3
:103B8B0000410000220000140000080000000000AB
:103B9B00000003C00004C000040000080038080F38
:103BAB00380808380810000C300007E00003C0008C
:103BBB00000000000000003F8000FFE00380700267
:103BCB000F1006708804C088048308047F8802C025
:103BDB009003012000FE400000080000180001F8CF
:103BEB00003E0801C20007020007E20000FE0000D1
:103BFB001FC80001F800003800000804000807FF88
:103C0B00F807FFF804080804080804080804080863
:103C1B0006180803F41801E7F00001E000000000AB
:103C2B000000003F8001FFE00380700200180400D9
:103C3B00080400080400080400100600200780C0D8
:103C4B0000000004000807FFF807FFF80400080451
:103C5B00000804000804001802001003807001FF24
:103C6B00E0007F8000000004000807FFF807FFF862
:103C7B00040808040808040808040808043E08049B
:103C8B00000806001801006000000004000807FF90
:103C9B00F807FFF8040808040800040800040800EB
:103CAB00043E00060000060000018000000000003A
:103CBB000000003F8001FFE0038070060018040045
:103CCB00080402080402080203F00783F000020054
:103CDB0000020004000807FFF807FFF804080800BB
:103CEB00080000080000080000080004080807FF8F
:103CFB00F807FFF8040008000000000000040008AB
:103D0B0004000804000807FFF807FFF80400080484
:103D1B000008040008000000000000000000000084
:103D2B000600000700000104000104000104000369
:103D3B0007FFFE07FFFC0400000400000400000462
:103D4B00000807FFF807FFF8040C08001800003EF6
:103D5B000004C7800503C80600F8040038040018E7
:103D6B0000000804000807FFF807FFF8040008002C
:103D7B000008000008000008000008000008000010
:103D8B001800006000000004000807FFF807800817
:103D9B0007FC00007FC00003F80007C00078000795
:103DAB00800807FFF807FFF804000804000807FF66
:103DBB00F807000803C00000E000003800001E00F8
:103DCB000007000001C00400F007FFF8040000002A
:103DDB000000007F8001FFE00380700600180400E4
:103DEB000804000806001803003001FFE0007F8084
:103DFB0000000004000807FFF807FFF8040408049C
:103E0B000400040400040400040400060C0003F87E
:103E1B000001F000000000000000007F8001FFE0C7
:103E2B000380700600880400880400C806003C0369
:103E3B00003E01FFE6007F8400000004000807FF3E
:103E4B00F807FFF8040808040800040C00040F002E
:103E5B00040BC00610F003F03801E0080000080066
:103E6B00000001E0F803F0300630100418080418C5
:103E7B0008040C08040C080206180207F00781E07E
:103E8B000000000180000600000400000400000494
:103E9B00000807FFF807FFF80400080400000400FF
:103EAB000006000001800004000007FFE007FFF0A0
:103EBB0004001800000800000800000800000800BB
:103ECB00000804001007FFE00400000400000600D7
:103EDB000007E00007FE00041FE00001F8000038B7
:103EEB000001E0043E0007C00006000004000004CF
:103EFB00000007E00007FFC0041FF80007C007F829
:103F0B000007FF80043FF80007C004F8000700001B
:103F1B0004000000000004000806001807C0780524
:103F2B00F1C8003E00001F800463E80780F806001C
:103F3B0018040008000000040000060000078000C1
:103F4B0007E008047C08001FF80007F800180804B5
:103F5B00E00807000006000004000000000001005C
:103F6B00080600380400F80403E8040F08047C0872
:103F7B0005F00807C00807001804006000000000E7
:103F8B0000000000000000000000000000003FFFE8
:103F9B00FE2000022000022000022000022000026E
:103FAB0000000000000000000008000007000000F7
:103FBB00C0000038000006000001C0000030000007
:103FCB000E000001000000000000000000200002B5
:103FDB002000022000022000022000023FFFFE0012
:103FEB0000000000000000000000000000000000C6
:103FFB00000000000800001000003000002000004E
:10400B00300000100000080000000000000000005D
:10401B000001000001000001000001000001000090
:10402B00010000010000010000010000010000017F
:10403B000000010000000000000000002000002034
:10404B000000100000100000000000000000000045
:10405B00000000000000000000000000F00019F854
:10406B00001B18002208002608002408002410005A
:10407B003FF8001FF80000080000180000000400C3
:10408B000007FFF80FFFF0001818001008002008B9
:10409B00002008003018001FF0000FC000000000C7
:1040AB0000000007C0001FF000183000200800209F
:1040BB0008002008003C08001C10000060000000F5
:1040CB000000000000000007C0001FF000381800BF
:1040DB00200800200800200804101007FFF80FFF2D
:1040EB00F00000100000000000000000000007C0FE
:1040FB00001FF000123000221800220800220800D6
:10410B003208001E10000E200000000000000020EE
:10411B000000200800200801FFF803FFF806200824
:10412B000420080420080720000300000000000002
:10413B00000000000E000E6E001FF30031B10020D6
:10414B00B10020B1003191001F13002E1E00200E74
:10415B0000300000000004000807FFF80FFFF80014
:10416B001008002000002000002008003FF8001F6E
:10417B00F80000080000000000000000000020080C
:10418B00002008002008063FF8063FF80000080052
:10419B000008000008000000000000000000000004
:1041AB000000000300000300200100200100200399
:1041BB00063FFE063FFC0000000000000000000070
:1041CB00000004000807FFF80FFFF8000188000348
:1041DB0000002FC00038F80020380020080000082D
:1041EB0000000000000000000004000804000804A8
:1041FB00000807FFF80FFFF8000008000008000098
:10420B0008000000000000002008003FF8003FF805
:10421B00001008002000003FF8003FF800100800D5
:10422B002000003FF8003FF80000080000000020CD
:10423B0008003FF8003FF8001008001000002000B5
:10424B00002008003FF8001FF800000800000000E5
:10425B0000000007C0000FF00018300030080020ED
:10426B0008002008003008001830000FF00007C0CD
:10427B00000000000000002001003FFF003FFF0096
:10428B001011002009002008002008003038001F02
:10429B00F0000FC00000000000000007C0001FF07E
:1042AB000038180020080020080020090010110019
:1042BB001FFF003FFF00000100000000200800204E
:1042CB0008002008003FF8003FF80008080010081D
:1042DB00002008002000003000003000000000002B
:1042EB000000000000000C78001E180033080023AB
:1042FB00080021080021880021980030F000386068
:10430B000000000000000020000020000020000042
:10431B00FFF003FFF8002008002008002008000031
:10432B0030000000000000000000002000003FF003
:10433B00007FF800001800000800000800201000A3
:10434B003FF8007FF000001000000000000000208C
:10435B0000003000003C00003F800023F00000789C
:10436B00000070002380003C0000300000200000A3
:10437B002000003C00003FE00023F80000E0002795
:10438B0000003E00003FE00021F80001E0003E008D
:10439B000020000000000020080020080038380032
:1043AB003E680027800003C8002CF8003838002036
:1043BB00180020080000000000000020000030035F
:1043CB00003C01003F830023EC00007000238000C1
:1043DB003C00002000002000000000000000000056
:1043EB00000038080020380020F80023E8002F8850
:1043FB00003E080038080020180000700000000084
:10440B000000000000000000000000000000000899
:10441B00000014001FF7FC30000620000200000013
:10442B000000000000000000000000000000000081
:10443B000000000000FFFFFF000000000000000074
:10444B00000000000000000000000000002000023F
:10445B003000061FF7FC00140000080000000000ED
:10446B000000000000000000000000000000180029
:10447B000060000040000040000020000010000021
:10448B000800000400000400000C0000100000C62F
:10449B00D50000000000E0380000783C00003C78BC
:1044AB0000003C70C0001CE1E01FFFFFF0001CE3AC
:1044BB00000E1CE7C0079CE78003DCEF0003DCEE7B
:1044CB000001DCFC60009CF9F07FFFFFF8000000AE
:1044DB000001C00E0001FFFF0001C00E0001C00E65
:1044EB000001C00E0001FFFE0001C00E0001C00E56
:1044FB000001C00E0001FFFE0001C00E0001C00E46
:10450B000000000000D6D0000000000007000000F3
:10451B0007800000070000000700000007000000F4
:10452B000701801FFFFFE01FFFFFE01E0701C01EFA
:10453B000701C01E0701C01E0701C01E0701C01ED8
:10454B000701C01FFFFFC01FFFFFC01E0701C01CDC
:10455B0007018000070000000700000007000000B3
:10456B000700000007000000070000000700000024
:10457B000700000007000000000000BFC60000009D
:10458B000000000780003C07C001FC07803FE007EC
:10459B008039C1C78001C0E78001C0F78001C077B7
:1045AB008001DE77807FFE078001C0078003C3C7D1
:1045BB008003E1E78003F8F78007FCE7F00FDE6785
:1045CB00F80FDC07F81FC0FF801DDFE78039CC0731
:1045DB008071C0078061C0078001C0078001C007E0
:1045EB008001E0078001E0078001C00700000000A8
:1045FB0000BCBC000000000380300003C03C000383
:10460B00C03C0003C0380003C0380003C03860034F
:10461B00F838F07FFFFFF003C0380003C038000309
:10462B00C0380003DC39C003FFFFE007E383C03F62
:10463B00C183C07FC1C3803BC1C78003C0EF0003F0
:10464B00C0EF0003C07E0003C07C0003C07C0003EE
:10465B00C0FE003BC3EF803F8787F80FBF03F8070F
:10466B007800E000000000C4EA0000000000C00079
:10467B000001F0000001E0000003C000C003C00116
:10468B00E007FFFFF00703C0000E03C0001E03C0CE
:10469B00003C03C3007303C78063FFFFC00383C0E9
:1046AB00000383C0000383C0000383C0000383C0E7
:1046BB00600383C0F07FFFFFF80003C0000003C05E
:1046CB00000003C0000003C0000003C0000003C0D3
:1046DB00000003C0000003C00000000000D4C200B3
:1046EB000000000000000000E0070000FFFF80005A
:1046FB00F0078000F0070000F0070000F007000053
:10470B00F0070000FFFF0000FFFF0000F0070000B4
:10471B00F0070000F0070000F0070000E0070000C2
:10472B00FFFF0000E0070000E0070000E0070001CA
:10473B00E0070001C0070001C00700038007000766
:10474B0080F7000F007F001E001F0038001C0000C8
:10475B00000000C8D50000000000000000030003AB
:10476B000003FFFF8003FFFF800380070003800728
:10477B000003800700038007000380070003800706
:10478B0000038007000380070003FFFF000380077F
:10479B0000038007000380070003800700038007E6
:1047AB0000038007000380070003800700038007D6
:1047BB000003FFFF0003800700038007000380074F
:1047CB00000300000000000000D0C7000000000044
:1047DB000000000380070003FFFF80038007000336
:1047EB008007000380070003FFFF0003800700031F
:1047FB0080070003FFFF0003FFFF00038707000391
:10480B0087C00003C7810003C7838007FFFFC00772
:10481B000780000F0780001E0786001C078F003BD8
:10482B00FFFF807007800000078000000780E0001A
:10483B000781F07FFFFFF80000000000000000C6BA
:10484B00DA0000000006000000079E0000079E7FB4
:10485B00F0079E7FF0079FF8F03FFFF8F01F9E7860
:10486B00F0079E78F0079E78F007FE7FF0079E78A2
:10487B00F0079E78F0079E70F007FE70F0079E70B1
:10488B00F0079E7FF0079FFFF03FFFF0F011907055
:10489B00F003DCF0F003DEE0F0078FE0F00F0FE049
:1048AB00F00E07C0F01C038FF0380F03E0201C0143
:1048BB00C00000000057617368696E67206D61630B
:1048CB0068696E652073797374656D0052756E6ED1
:1048DB00696E672074696D653A005761736865721C
:1048EB00205363686564756C6500437573746F6DF5
:1048FB00204D4F444500000500325374726F6E67B4
:10490B00206D6F64653A35355300000000000005DB
:10491B0000467374616E6461726473206D6F6465BD
:10492B003A33385300000005005A517569636B2008
:10493B006D6F64653A3138530000000000000005CC
:10494B00006E437573746F6D206D6F6465000000AE
:10495B00000000000000000500964B4559313A5508
:10496B0050000000000000000000000000000005E7
:10497B0000AA4B4559353A444F574E0000000000F2
:10498B00000000000000000500BE4B4559363A43BD
:10499B004F4E4649524D000000000000000000053C
:1049AB0000D200000000000000000000000000002A
:1049BB00000000000000000500E600000000000001
:1049CB0000000000000000000000000000000005D7
:1049DB0000FA0000000000000000000000000000D2
:1049EB000000000000000005010E000000000000A8
:1049FB0000000000000000000000000000000005A7
:104A0B00012C00000000000000000000000000006E
:104A1B000000000000000005003257617465722031
:104A2B00566F6C756D6500000000000000000005FE
:104A3B00005A57617368000000000000000000007E
:104A4B000000000000000005008252696E736500D3
:104A5B000000000000000000000000000000000546
:104A6B0000AA4465687964726174696F6E00000016
:104A7B00000000000000000500D24B4559363A4FAC
:104A8B006E6365206D6F726500000000000000050D
:104A9B0000324C6E666C75656E742054696D653AA8
:104AAB002000000000000005004657617368696E26
:104ABB00672054696D653A20000000000000000576
:104ACB00005A52696E73652054696D653A20000077
:104ADB000000000000000005006E446568796472F8
:104AEB006174696F6E2054696D653A200000000592
:104AFB0000964B4559313A5550000000000000001C
:104B0B00000000000000000500AA4B4559353A444F
:104B1B004F574E0000000000000000000000000591
:104B2B0000BE4B4559323A4144440000000000009E
:104B3B00000000000000000500D24B4559363A53E7
:104B4B00554220000000000000000000000000059E
:104B5B0000E64C4F4E47204B4559363A434F4E4695
:104B6B0049524D000000000500FA00000000000053
:104B7B000000000000000000000000000000000525
:104B8B00010E00000000000000000000000000000B
:104B9B000000000000000005012C000000000000D8
:104BAB000000000000000000000000000000696E23
:104BBB006974204F4B0D0A0025640D0A0025642CE7
:104BCB0025642C25642C25640D0A002530326400E5
:104BDB002564002575004E6F773D25642053746165
:104BEB0072743D2564205265713D25642025640D4A
:024BFB000A00AE
:00000001FF
